:020000040800F2
:10000000A8040020F5160008C1150008C315000853
:10001000C5150008C7150008C91500080000000034
:10002000000000000000000000000000CB150008E8
:10003000CD15000800000000CF150008D1150008FC
:10004000291700082D170008311700083517000878
:10005000391700083D170008411700084517000828
:10006000491700084D1700085117000855170008D8
:10007000591700085D170008611700086517000888
:10008000691700086D170008711700087517000838
:10009000791700087D1700088117000885170008E8
:1000A000891700088D170008911700089517000898
:1000B000991700089D170008A1170008A517000848
:1000C000A9170008AD170008B1170008B5170008F8
:1000D000B9170008BD170008C1170008C5170008A8
:1000E000C9170008CD170008D1170008D517000858
:1000F000D3150008D9170008DD170008E11700081C
:10010000E5170008E9170008ED170008F1170008C7
:10011000F5170008F9170008FD1700080118000876
:1001200005180008091800080D1800081118000823
:10013000151800080000000000000000D915000894
:10014000DD150008ED150008EF1500081918000866
:100150001D18000821180008251800082918000893
:100160002D18000831180008351800083918000843
:100170003D180008411800080000000000000000C1
:10018000451800084918000838B5040019D094F83B
:10019000200010B9204600F035FA00F078F8054646
:1001A00020684168CA074ED400F092FA401B0B2821
:1001B000F6D304E000F08CFA401B0B284AD300F081
:1001C00059F8012032BD016821F080010160607E94
:1001D00000F04CF80CBF41F0400121F040010160FB
:1001E000A07E00F043F80CBF41F0200121F0200177
:1001F0000160E07E00F03AF80CBF21F0100141F000
:1002000010010160207F00F031F80CBF41F00801BF
:1002100021F008010160607F00F028F80CBF41F078
:10022000040121F004010160A268E0682169024331
:1002300060690A43616802432068491E0A43C2613B
:10024000002161621EE0016821F00201016000F0FE
:100250003FFA0546206841688A07ABD4217E012910
:10026000B1D1026842F080020260B0E70128206844
:1002700001687047606A40F400306062052184F8CC
:1002800020107047012084F82000002032BD206833
:10029000016841F00101016000F01ABA41620120D9
:1002A000F0BDF0B590F82040012C18BF022C66D1AB
:1002B0000029046801D1E56800E0256915F0030F05
:1002C00003D1416A41F400115CE00D0104F5D876D8
:1002D000745914F004049460066806F5D87603D1C6
:1002E0007459640D146002E07659F608566004688B
:1002F00004F5D876775907F00207D76000F043F885
:1003000006F00F06166100F03EF8C6F3072494616C
:1003100000F039F8360C566102682A44D2F8B84128
:100320001C7006682E44D6F8B821120A5A70046868
:100330002C44D4F8B821120C9A7004682C44D4F8D8
:10034000B821120EDA7000F023F81A7100F020F8CC
:10035000120A5A7100F01CF8120C9A7100F018F889
:10036000120EDA71006821B9C16841F02001C16044
:1003700003E0016941F0200101610020F0BD416A04
:1003800041F480218AE704682C44D4F8B4617047B2
:1003900004682C44D4F8BC2170472DE9F84F054679
:1003A0004FF0000828684669D0F804B08468D0F897
:1003B0000C90D0F810A08769F10745D5E20713D556
:1003C00001218160A00703D5284600F087F90BE0E2
:1003D000600748BF4FF4006806D420074EBF4FF4B3
:1003E0008058284600F07BF9E00515D52A684FF4BF
:1003F0008071A005916003D5284600F071F90BE0EB
:10040000600548BF48F4005806D420054EBF48F4A4
:100410008048284600F065F9E00315D52A684FF4B6
:100420008031A003916003D5284600F05BF90BE012
:10043000600348BF48F4004806D420034EBF48F488
:100440008038284600F04FF9300748BF5FEAC9619D
:1004500004D52968102048F40078C860700748BFA8
:100460005FEA097105D52A680820D060284600F0A7
:100470003BF9B00707D52968C86810F0030F1CBF07
:10048000284600F0ECF9700648BF5FEACA6104D55F
:100490002968102048F480680861B00648BF5FEA08
:1004A0000A7105D52A6808201061284600F00EFA66
:1004B000F00607D52968086910F0030F1CBF28460D
:1004C00000F0D7F9B00348BF5FEACB6105D52A68D1
:1004D00010205060284600F0FAF9F00348BF5FEAA8
:1004E0000B7105D52A6808205060284600F0F0F905
:1004F000300440D55FEA4B713AD5F00503D5F907D2
:1005000048BF48F00108B00503D5B90748BF48F017
:100510000208700503D5790748BF48F00408300584
:1005200026D517F0700F23D007F07007102F0CD0CE
:10053000202F0DD0302F0ED0402F0FD0502F10D0A5
:10054000602F08BF48F480780DE048F008080AE002
:1005500048F0100807E048F0200804E048F04008A0
:1005600001E048F080082868816921F0700181610C
:10057000042029684860B8F1000F08D0686A48EA8A
:10058000000068622846BDE8F24F00F083B9BDE87C
:10059000F18F406A704730B4002513E050F8042B07
:1005A000D30744BFA9F101039A18091F042942F88F
:1005B000045BFAD213468C0744BF15809B1CC90705
:1005C00048BF1D7050F8041B0029E7D130BC7047AC
:1005D00081B00020009000223948416841F48041F8
:1005E0004160416801F480410091009900920368E4
:1005F00043F080530360006800F080500090009842
:1006000001B0704738B586B0044601A8142100F047
:1006100061F924682B4DAC424FD10020009000229C
:100620002948016941F080610161016901F080613F
:10063000009100990092016941F000710161016926
:1006400001F0007100910099009242F220010368CC
:1006500043F0020303600222006800F002000090F1
:1006600000981A4801910292002103910322092166
:100670000591049201A900F031F9002200213F20E8
:1006800000F048FA3F2000F062FA002200214020EA
:1006900000F040FA402000F05AFA002200214120E8
:1006A00000F038FA412000F052FA002200214220E6
:1006B00000F030FA422000F04AFA07B030BD0000E6
:1006C00040380240006800403038024000040240D8
:1006D00001484068704700BF000000207047704725
:1006E00070477047704770477047000010B586B07C
:1006F00000F042FA00F064F801A8142100F0EAF8D2
:1007000000200090684C6948016841F004010160D4
:10071000026802F00402009200220099009203682D
:1007200043F080030360016801F0800100910099AB
:100730000092036843F002030360016801F00201C4
:100740000091009900924FF40051036843F00103B7
:100750000360006800F0010000900098204600F05F
:100760009CF94FF400510191012200210391049161
:10077000029201A9204600F0B1F84D484D490160B0
:1007800010224FF480114260416100234FF4402257
:1007900001218360C3600261037641768376C1766E
:1007A00003774177FFF7F0FC08B100F08DF860693E
:1007B00080F4005060614FF4FA7000F0F7F9F6E74A
:1007C00080B592B006A8302100F084F801A8142169
:1007D00000F080F8002000904FF480333648016824
:1007E00041F0805101600021006800F080500090CD
:1007F000009832480091026842F48042026001226F
:10080000006800F48040009006A80099069202213A
:100810004FF480020C910D92042180220E910F92D0
:100820000221042207931091119200F0D3F908B12C
:1008300000F04AF802210291002203920F204FF4A7
:10084000A051019004914FF480520592042101A817
:1008500000F058FB08B100F037F813B000BD80B5C8
:10086000174A02F11C030021FFF71BFD00B90AE043
:1008700001BD80B5124A02F11C030121FFF711FDF1
:1008800000B900E001BDBDE804404FF40051064846
:1008900000F007B9FFF77DBE00680A49884208BF2B
:1008A00000F01ABC704700000008024030380240D7
:1008B00058000020006800404038024000700040AE
:1008C000800000200004014072B6FEE770477047C8
:1008D00070470000002200F007BC00002DE9F84F2F
:1008E0000D464FF0000873490F22012304462E687D
:1008F00003FA08F000EA0609814540F0C6804FEA95
:10090000480C032606FA0CF66FEA060E6E6806F02F
:100910000307012F1CBF06F00306022E11D1A668A3
:10092000EF680EEA060607FA0CF73E43A660666813
:1009300026EA00006E68C6F3001606FA08F6304391
:1009400060604FEA88002E7906F00306032E1FD060
:10095000E668AF680EEA060607FA0CF73E43E66063
:100960002E7906F00306022E12D14FEAD80604EBC8
:10097000860600F01C07D6F820A002FA07FB2AEA38
:100980000B0AD5F810B00BFA07F747EA0A073762E7
:1009900026680EEA06072E7906F0030606FA0CF61C
:1009A0003E4326606E6816F4403F6ED000260096E7
:1009B0004FEA980C0E68DFF800E146F480460E60BE
:1009C00000F00C000E6806F480460096009E5EF86B
:1009D0002C7002FA00F627EA0606384FBC4208BF20
:1009E000002722D0364FBC4208BF01271DD0354F0B
:1009F000BC4208BF022718D0334FBC4208BF0327B0
:100A000013D0324FBC4208BF04270ED0304FBC4237
:100A100008BF052709D02F4FBC4208BF062704D0C6
:100A20002D4FBC420CBF0727082707FA00F03043C0
:100A30004EF82C006FEA090C284886680CEA060E6E
:100A40006E68F70248BF49EA0E0EC0F808E0C668B3
:100A50000CEA060E6E68B70248BF49EA0E0EC0F8EF
:100A60000CE046680CEA060E6E68B70348BF49EA18
:100A70000E0EC0F804E006680CEA060E6E68F60377
:100A800048BF49EA0E0EC0F800E008F10108B8F1CD
:100A90000F0F7FF62CAFBDE8F18F02B90904816119
:100AA0007047426901EA0203914341EA03418161CF
:100AB00070470000443802400838014000000240FE
:100AC0000004024000080240000C024000100240F6
:100AD0000014024000180240001C0240003C01408B
:100AE0000901020002D41F48815470471E4B02F0D6
:100AF0000F021A4402F8041C70471C4B19684FF689
:100B0000FF020002114000F4E06008431849084366
:100B10001860704738B5154B1C68C4F30223C3F145
:100B20000704052C28BF04241D1D072D34BF0023F6
:100B3000DB1E012505FA04F4641E2140994005FAE4
:100B400003F35B1E1A401143BDE83440C8E70100BF
:100B500007D4012200F01F01064B8A40400943F8E8
:100B60002020704700E400E018ED00E00CED00E00C
:100B70000000FA0500E100E080B50B48016841F48F
:100B800000710160026842F480620260016841F411
:100B9000807101600320FFF7B0FF0F2000F0BEFA64
:100BA000FFF716FD002002BD003C024038B50446A8
:100BB000FFF78EFD14F1010F054602D004480178BD
:100BC0006418FFF785FD401BA042FAD331BD00BF7A
:100BD000000000202DE9F843040016D02078DFF84B
:100BE0001463C10713D5B06800F00C00042807D0C7
:100BF000B06800F00C0008283ED1706841023BD577
:100C00003068810303D56068002800F005812078F2
:100C1000B94F810719D5B06810F00C0F07D0B06834
:100C200000F00C0008285CD17068410259D430688B
:100C3000810703D5E068012840F0EE803168206923
:100C400021F0F80141EAC0013160217808076CD534
:100C50006069AA49002862D001220A60FFF738FDC6
:100C60000546706F810700F1D980FFF731FD401B09
:100C70000228F6D903203AE16068B0F5803F04D13C
:100C8000306840F48030306011E0B0F5A02F30685B
:100C900006D140F480203060316841F4803105E0B5
:100CA00020F480303060316821F480213160606848
:100CB00058B1FFF70DFD054630688103A7D4FFF753
:100CC00007FD401B6528F7D3D4E7FFF701FD054674
:100CD000306881039BD5FFF7FBFC401B6528F7D3E9
:100CE000C8E7E06870B101213960FFF7F1FC054603
:100CF0003068810700F1BE80FFF7EAFC401B022844
:100D0000F6D9B7E73860FFF7E3FC05463168880796
:100D10009BD5FFF7DDFC401B0228F7D9AAE7086046
:100D2000FFF7D6FC0546706F810777D5FFF7D0FC3B
:100D3000401B0228F7D99DE70528306F06D140F007
:100D400004003067306F40F0010005E040084000CB
:100D50003067306F20F00400306741F28938A068B6
:100D600068B1FFF7B5FC8146306F810700F18F80D5
:100D7000FFF7AEFCA0EB09004045F5D37AE7FFF79B
:100D8000A7FC8146306F810740F18180FFF7A0FC0E
:100D9000A0EB09004045F5D36CE7FFF799FC401B39
:100DA000022840F2878065E7FFF792FC001B0228CB
:100DB00040F298805EE700203866FFF789FC044621
:100DC0003068810140F19280FFF782FC001B02280D
:100DD000F6D94FE701281FD07068E26900F480015E
:100DE000914202BF00F03F01226A914201BF47F6E3
:100DF000C0710140626AB1EB821F0DD1A26A520834
:100E000000F44031521EB1EB024F02BF00F070609F
:100E1000E16AB0EB016F69D0012068E020784107FA
:100E20003AD5306C0025C1000AD400950125316CFB
:100E300041F080513164306C00F080500090009897
:100E4000DFF8BC80D8F80000C1051BD4D8F800003A
:100E500040F48070C8F80000FFF73AFC8146D8F8EB
:100E60000000C1050ED4FFF733FCA0EB09000228F7
:100E7000F5D9FFE63068216920F0F80040EAC100AA
:100E80003060E2E6A06801287FF456AF5AE71DB152
:100E9000306C20F080503064A06938B3B16801F044
:100EA0000C01082996D0022885D100203866FFF76A
:100EB0000FFC0546306881013FF56FAFE269206A9B
:100EC000616A0243A06A400842EA8112401E42EA77
:100ED0000042E06A42EA0062726001213966FFF76F
:100EE000F7FB0446306881017FF55EAF0020BDE866
:100EF000F28300BF0038024000004742800E4742A4
:100F0000007000402DE9F04104000F4678D0534EA8
:100F1000306800F00700B84202D200F073F86FD1D9
:100F200020684F4D810712D5400703D5A96841F4C9
:100F3000E051A9602078010703D5A86840F460401B
:100F4000A860A968A06821F0F0010143A960217898
:100F5000C8074DD56068012802D129688A0305E0D9
:100F6000022818BF032803D129688A0103D447E067
:100F700029688A0744D5A968890840EA8100A860E1
:100F8000FFF7A6FB8046A868616800F00C00B0EB94
:100F9000810F2DD0FFF79CFBA0EB080041F28931B7
:100FA0008842F0D3032021E02078410705D5AA68C4
:100FB000E06822F4E0520243AA602178080706D5CF
:100FC000A968206921F4604141EAC001A96000F0EC
:100FD00053F8AA682349244BC2F30312895CC84022
:100FE00018602248006800F099F80020BDE8F08100
:100FF000306800F007008742D6D200F003F8D3D063
:101000000120F3E73770316801F00701B9427047FA
:101010001548174A006813681649C3F34232895CC1
:10102000C840704710B50F220260114A136803F0E0
:1010300003034360146804F0F0048460136803F44D
:10104000E053C3601268D20802F4E0520261034820
:10105000026802F007020A6010BD0000003C024076
:10106000003802409C1600080C00002008000020F8
:10107000083802402017000830B5144C606800F0B2
:101080000C00042802D0082802D01DE0104830BD12
:10109000226820680023410202F03F0204D525683F
:1010A0000B49C5F3881003E020680A49C0F3881093
:1010B000A1FB000100F07CF82168C1F30141491C4B
:1010C0004900B0FBF1F030BD024830BD04380240A9
:1010D00000127A000024F4000248416802788A185D
:1010E000426070470000002000B500BF1300964624
:1010F0009446103928BFA0E80C50FAD85FEA417C2A
:1011000028BF0CC048BF40F8042BC90728BF20F8EF
:10111000022B48BF00F8012B00BD000078B587B056
:101120000446002000901D4D1D48016841F0020159
:10113000016001A9006800F00200009002A8009A76
:10114000FFF770FFFFF764FF1649296040F2E732AE
:1011500040001549EA60B0FBF1F0401E68600022D3
:101160002A61AA60AA61284600F0A6F8060012D1FA
:10117000284600F0AEF806000DD12C20FFF7E7FC62
:10118000102C07D2002221462C20FFF7C3FC074871
:10119000046000E00126304608B070BD1000002059
:1011A000443802400004014040420F000800002083
:1011B000D3BBD9B1B2F5803F5BD2022A1ED98C468F
:1011C000B1FBF2F102FB11C31B0443EA1043B3FB72
:1011D000F2FC02FB1C3380B240EA0343B3FBF2F0A3
:1011E00002FB103240EA0C4000237047022A05D966
:1011F0008446B0FBF2F002FB10C270474AB105D141
:1012000000F0010249085FEA300070470022002325
:10121000704700F0CDB90B0002000021002070479C
:10122000F7D3002200237047904271EB030CF2D3F6
:1012300070B5B1FA81F4B3FA83F52C1BA340C4F165
:10124000200532FA05F63343A2405FF00046E6403F
:1012500002E05B085FEA3202841A71EB030524BFE7
:10126000204629467641F4D302000B0030000021CD
:1012700070BD70B5B1FA81F4B2FA82F5C4F1200400
:101280006419B4F12006DAD3B2405FF00044F440B0
:10129000002502E052085FEA3303C61A71EB020E22
:1012A00024BF3046714664416D41F3D302000B0008
:1012B0002000290070BD000038B5040001D10120D4
:1012C00032BD00F065F818B900F00AF900F06EF9C7
:1012D0003DE090F83D10012901D001207047022126
:1012E00080F83D100168CA6842F00102CA600068D7
:1012F000DFF88010884218BFB0F1804F17D0DFF8B8
:10130000781088421CBFDFF8742090420FD0DFF8BD
:10131000701088421CBFDFF86C20904207D0DFF8C5
:10132000681088421CBFDFF86420904209D18168B0
:1013300001F00701062908D0016841F001010160B0
:1013400003E0026842F001020260002070470220C0
:101350006870211D206800F0C7F80120A872A870ED
:10136000E87028716871A871E871287268726870F5
:10137000002032BD00000140000400400008004091
:10138000000C0040000401400040014000180040F3
:1013900004F13C056878704710B50446206801697F
:1013A0008A0715D5C1688A0712D56FF0020101615D
:1013B00001222277806910F0030F204602D000F04E
:1013C000F8F803E000F0F6F800F087F80020207746
:1013D000206801694A0715D5C1684A0712D56FF020
:1013E0000401016102222277806910F4407F2046C7
:1013F00002D000F0DEF803E000F0DCF800F06DF859
:1014000000202077206801690A0715D5C1680A07FE
:1014100012D56FF00801016104222277C06910F033
:10142000030F204602D000F0C4F803E000F0C2F839
:1014300000F053F80020207720680169CA0615D50E
:10144000C168CA0612D56FF0100101610822227727
:10145000C06910F4407F204602D000F0AAF803E0F3
:1014600000F0A8F800F039F8002020772068016922
:10147000CA0708D5C168CA0705D56FF00101016127
:101480002046FFF709FA206801690A0608D5C168F5
:101490000A0605D56FF080010161204600F08BF847
:1014A000206801694A0608D5C1684A0605D56FF06B
:1014B00040010161204600F07FF8206801698A063A
:1014C0000AD5C1688A0607D56FF020010161204660
:1014D000BDE8104000F071B810BD204600F06EB8B5
:1014E0000021297020467047F0B5254C0568254B32
:1014F000254E264FDFF898C0A04218BFB0F1804FAC
:1015000007D0604518BFB84203D0B04218BF984218
:101510000DD14A6825F070051543A04218BFB0F1FF
:10152000804F17D060451CBFB842B04212D09842DD
:101530001CBF184A90420DD0174EB0421CBF174A2C
:10154000904207D0164EB0421FBF164A9042164E28
:10155000B04203D1CA6825F4407515434A6925F0A5
:10156000800515430560A0428D68C5620A688262E5
:1015700012BF98420969016301224261F0BD000077
:101580000000014000040140000C00400008004041
:101590000004004000400140004401400048014078
:1015A00000180040001C0040002000407047000070
:1015B000704770477047704770477047704700002A
:1015C000FEE7FEE7FEE7FEE7FEE77047704770477D
:1015D00070470448FFF7E0BE01E0000000BF02488A
:1015E000FEF7DBBE1000002058000020F7E7F6E70A
:1015F00030B450F8041B79B10268436802440830E3
:10160000DC0744BFA9F10104E31852F8045B43F876
:10161000045B091FF9D1ECE730BC704710B50749EE
:1016200079441831064C7C44163404E00A68081DDD
:10163000114488470146A142F8D110BD2C0000009A
:101640004C0000004EF68851CEF20001086840F4CC
:1016500070000860BFF34F8FBFF36F8F4FF00070C3
:10166000E1EE100A704700002FEFFFFF940000002A
:10167000100000200000000079FFFFFF10000000B4
:101680008400000000000020000000000248016803
:1016900041F470010160704788ED00E00000000037
:1016A00000000000010203040607080900F00DF81D
:1016B000002801D0FFF7B2FFAFF300800020AFF3A6
:1016C0000080FFF713F800F002F80120704700F0E7
:1016D00001B800000746384600F002F8FBE70000BA
:1016E00080B5AFF30080024A11001820ABBEFBE7C3
:1016F0002600020001488047014800478D16000877
:101700001517000801000000000000001000000094
:101710000024F400AFF30080FFF794FFFFF7C6FF4B
:101720000000000001020304FFF7FEBFFFF7FEBF49
:10173000FFF7FEBFFFF7FEBFFFF7FEBFFFF7FEBFDD
:10174000FFF7FEBFFFF7FEBFFFF7FEBFFFF7FEBFCD
:10175000FFF7FEBFFFF7FEBFFFF7FEBFFFF7FEBFBD
:10176000FFF7FEBFFFF7FEBFFFF7FEBFFFF7FEBFAD
:10177000FFF7FEBFFFF7FEBFFFF7FEBFFFF7FEBF9D
:10178000FFF7FEBFFFF7FEBFFFF7FEBFFFF7FEBF8D
:10179000FFF7FEBFFFF7FEBFFFF7FEBFFFF7FEBF7D
:1017A000FFF7FEBFFFF7FEBFFFF7FEBFFFF7FEBF6D
:1017B000FFF7FEBFFFF7FEBFFFF7FEBFFFF7FEBF5D
:1017C000FFF7FEBFFFF7FEBFFFF7FEBFFFF7FEBF4D
:1017D000FFF7FEBFFFF7FEBFFFF7FEBFFFF7FEBF3D
:1017E000FFF7FEBFFFF7FEBFFFF7FEBFFFF7FEBF2D
:1017F000FFF7FEBFFFF7FEBFFFF7FEBFFFF7FEBF1D
:10180000FFF7FEBFFFF7FEBFFFF7FEBFFFF7FEBF0C
:10181000FFF7FEBFFFF7FEBFFFF7FEBFFFF7FEBFFC
:10182000FFF7FEBFFFF7FEBFFFF7FEBFFFF7FEBFEC
:10183000FFF7FEBFFFF7FEBFFFF7FEBFFFF7FEBFDC
:0C184000FFF7FEBFFFF7FEBFFFF7FEBF83
:0400000508001715C3
:00000001FF
